:02000000BE2818
:10000600053083120313FC00EE30FD00FD0B0928BA
:08001600FC0B092800000800A2
:10001E00831203132C08013A031D1D280516032015
:10002E0005150320051103200512212805120515BB
:08003E00032005110320080056
:10004600831203132808AA002908AB00851503208C
:10005600AC010F20A5010830250203183B2800300B
:10006600AA1B0130AC000F20AA0D2A10A50A2E28C3
:10007600A50108302502031849280030AB1B0130C2
:10008600AC000F20AB0D2B10A50A3C2885110320D0
:0E009600051503200511032003200320080098
:1000A4000030831203132805F3002908FF39F400F4
:1000B4007408F000F1017008AA00FF302805AB00B5
:1000C40085150320AC010F20A50108302502031873
:1000D40074280030AA1B0130AC000F20AA0D2A108E
:1000E400A50A6728A50108302502031882280030D4
:1000F400AB1B0130AC000F20AB0D2B10A50A7528EB
:100104008511032005150320051103200320032076
:020114000800E1
:1001160083120313FB01FA01F9018030F800F10C98
:10012600F00C031C9F287408F90775080318750F4F
:10013600FA070318FB0A0310F01FA7287408FA072A
:1001460075080318750FFB07FB0CFA0CF90CF80C75
:10015600031C92287B08F3007A08F2007908F10064
:060166007808F00008001B
:10016C00043083120313FD00FD0BBA2800000800B5
:10017C000730831203139F008501E030831685003E
:10018C00FF30860081138312A6010530A6002616C7
:10019C00A613A70127140C30A704A7122717A7171B
:1001AC002708A8002608A90023200609F0007008DB
:1001BC00A2007008383CF0000030031C013E043CE7
:1001CC00F1007008A3007108A4000A30F40000309C
:1001DC00F5008B207008A3007108A4007008A8001B
:1001EC007108A90052201430FB004830FC0001308B
:1001FC00FD00FD0BFF28FC0BFF28FB0BFF28A601C5
:10020C000530A6002616A617A7012714A714A712B7
:10021C002717A7172708A8002608A90023202308BA
:10022C00A8002408A90052201D3083168500B62092
:10023C00000000001E3083168500B6200000000070
:10024C000D3083168500B620000000000E3083169A
:08025C008500B6201A293129A2
:02400E0062004E
:00000001FF
